{
  "_format": "hh-sol-artifact-1",
  "contractName": "PackageTracking",
  "sourceName": "contracts/PackageContract.sol",
  "abi": [
    {
      "anonymous": false,
      "inputs": [
        {
          "indexed": true,
          "internalType": "uint256",
          "name": "packageId",
          "type": "uint256"
        },
        {
          "indexed": true,
          "internalType": "address",
          "name": "authority",
          "type": "address"
        },
        {
          "indexed": false,
          "internalType": "string",
          "name": "process",
          "type": "string"
        }
      ],
      "name": "PackageScanned",
      "type": "event"
    },
    {
      "anonymous": false,
      "inputs": [
        {
          "indexed": true,
          "internalType": "uint256",
          "name": "packageId",
          "type": "uint256"
        },
        {
          "indexed": true,
          "internalType": "address",
          "name": "newResponsible",
          "type": "address"
        }
      ],
      "name": "ResponsiblePartyUpdated",
      "type": "event"
    },
    {
      "inputs": [
        {
          "internalType": "address",
          "name": "",
          "type": "address"
        }
      ],
      "name": "authorities",
      "outputs": [
        {
          "internalType": "address",
          "name": "authorityAddress",
          "type": "address"
        },
        {
          "internalType": "string",
          "name": "name",
          "type": "string"
        }
      ],
      "stateMutability": "view",
      "type": "function"
    },
    {
      "inputs": [
        {
          "internalType": "address",
          "name": "authorityAddress",
          "type": "address"
        }
      ],
      "name": "getAuthorityDetails",
      "outputs": [
        {
          "components": [
            {
              "internalType": "address",
              "name": "authorityAddress",
              "type": "address"
            },
            {
              "internalType": "string",
              "name": "name",
              "type": "string"
            }
          ],
          "internalType": "struct PackageTracking.Authority",
          "name": "",
          "type": "tuple"
        }
      ],
      "stateMutability": "view",
      "type": "function"
    },
    {
      "inputs": [
        {
          "internalType": "uint256",
          "name": "packageId",
          "type": "uint256"
        }
      ],
      "name": "getPackageDetails",
      "outputs": [
        {
          "components": [
            {
              "internalType": "uint256",
              "name": "id",
              "type": "uint256"
            },
            {
              "internalType": "string[]",
              "name": "processes",
              "type": "string[]"
            },
            {
              "internalType": "address",
              "name": "currentResponsible",
              "type": "address"
            },
            {
              "internalType": "bool",
              "name": "scanned",
              "type": "bool"
            }
          ],
          "internalType": "struct PackageTracking.Package",
          "name": "",
          "type": "tuple"
        }
      ],
      "stateMutability": "view",
      "type": "function"
    },
    {
      "inputs": [
        {
          "internalType": "uint256",
          "name": "",
          "type": "uint256"
        }
      ],
      "name": "packages",
      "outputs": [
        {
          "internalType": "uint256",
          "name": "id",
          "type": "uint256"
        },
        {
          "internalType": "address",
          "name": "currentResponsible",
          "type": "address"
        },
        {
          "internalType": "bool",
          "name": "scanned",
          "type": "bool"
        }
      ],
      "stateMutability": "view",
      "type": "function"
    },
    {
      "inputs": [
        {
          "internalType": "address",
          "name": "authorityAddress",
          "type": "address"
        },
        {
          "internalType": "string",
          "name": "name",
          "type": "string"
        }
      ],
      "name": "registerAuthority",
      "outputs": [],
      "stateMutability": "nonpayable",
      "type": "function"
    },
    {
      "inputs": [
        {
          "internalType": "uint256",
          "name": "packageId",
          "type": "uint256"
        }
      ],
      "name": "registerPackage",
      "outputs": [],
      "stateMutability": "nonpayable",
      "type": "function"
    },
    {
      "inputs": [
        {
          "internalType": "uint256",
          "name": "packageId",
          "type": "uint256"
        },
        {
          "internalType": "string",
          "name": "process",
          "type": "string"
        }
      ],
      "name": "scanPackage",
      "outputs": [],
      "stateMutability": "nonpayable",
      "type": "function"
    },
    {
      "inputs": [],
      "name": "scannedPackages",
      "outputs": [
        {
          "internalType": "uint256",
          "name": "",
          "type": "uint256"
        }
      ],
      "stateMutability": "view",
      "type": "function"
    },
    {
      "inputs": [],
      "name": "totalPackages",
      "outputs": [
        {
          "internalType": "uint256",
          "name": "",
          "type": "uint256"
        }
      ],
      "stateMutability": "view",
      "type": "function"
    },
    {
      "inputs": [
        {
          "internalType": "uint256",
          "name": "packageId",
          "type": "uint256"
        },
        {
          "internalType": "address",
          "name": "newResponsible",
          "type": "address"
        }
      ],
      "name": "updateResponsibleParty",
      "outputs": [],
      "stateMutability": "nonpayable",
      "type": "function"
    }
  ],
  "bytecode": "0x608060405234801561001057600080fd5b50611b24806100206000396000f3fe608060405234801561001057600080fd5b506004361061009e5760003560e01c80639386524411610066578063938652441461015a578063b52541131461018a578063c216212a146101a6578063ee4854c0146101d8578063f1542b94146101f45761009e565b80631cbde9dd146100a357806343cb1185146100bf5780634b836606146100db5780636c435e36146100f957806391223d6914610129575b600080fd5b6100bd60048036038101906100b89190611010565b610212565b005b6100d960048036038101906100d491906110a2565b610371565b005b6100e361053c565b6040516100f091906110f1565b60405180910390f35b610113600480360381019061010e919061110c565b610542565b6040516101209190611316565b60405180910390f35b610143600480360381019061013e9190611338565b6106c2565b6040516101519291906113be565b60405180910390f35b610174600480360381019061016f9190611338565b61078e565b604051610181919061142b565b60405180910390f35b6101a4600480360381019061019f919061110c565b6108cf565b005b6101c060048036038101906101bb919061110c565b610a6e565b6040516101cf9392919061145c565b60405180910390f35b6101f260048036038101906101ed9190611493565b610ac5565b005b6101fc610d08565b60405161020991906110f1565b60405180910390f35b6000600160008473ffffffffffffffffffffffffffffffffffffffff1673ffffffffffffffffffffffffffffffffffffffff16815260200190815260200160002060010180546102619061151e565b9050146102a3576040517f08c379a000000000000000000000000000000000000000000000000000000000815260040161029a9061159b565b60405180910390fd5b60405180604001604052808373ffffffffffffffffffffffffffffffffffffffff16815260200182815250600160008473ffffffffffffffffffffffffffffffffffffffff1673ffffffffffffffffffffffffffffffffffffffff16815260200190815260200160002060008201518160000160006101000a81548173ffffffffffffffffffffffffffffffffffffffff021916908373ffffffffffffffffffffffffffffffffffffffff16021790555060208201518160010190816103699190611767565b509050505050565b6000600160003373ffffffffffffffffffffffffffffffffffffffff1673ffffffffffffffffffffffffffffffffffffffff16815260200190815260200160002060010180546103c09061151e565b905011610402576040517f08c379a00000000000000000000000000000000000000000000000000000000081526004016103f990611885565b60405180910390fd5b60008060008481526020019081526020016000209050600081600001540361045f576040517f08c379a0000000000000000000000000000000000000000000000000000000008152600401610456906118f1565b60405180910390fd5b8060020160149054906101000a900460ff166104b0576040517f08c379a00000000000000000000000000000000000000000000000000000000081526004016104a79061195d565b60405180910390fd5b818160020160006101000a81548173ffffffffffffffffffffffffffffffffffffffff021916908373ffffffffffffffffffffffffffffffffffffffff1602179055508173ffffffffffffffffffffffffffffffffffffffff16837f1f062cc1fa33013a407c62fe0fa4dcdd071e03fe59dd4f8a82c54fe19beb425b60405160405180910390a3505050565b60035481565b61054a610d0e565b6000808381526020019081526020016000206040518060800160405290816000820154815260200160018201805480602002602001604051908101604052809291908181526020016000905b828210156106425783829060005260206000200180546105b59061151e565b80601f01602080910402602001604051908101604052809291908181526020018280546105e19061151e565b801561062e5780601f106106035761010080835404028352916020019161062e565b820191906000526020600020905b81548152906001019060200180831161061157829003601f168201915b505050505081526020019060010190610596565b5050505081526020016002820160009054906101000a900473ffffffffffffffffffffffffffffffffffffffff1673ffffffffffffffffffffffffffffffffffffffff1673ffffffffffffffffffffffffffffffffffffffff1681526020016002820160149054906101000a900460ff1615151515815250509050919050565b60016020528060005260406000206000915090508060000160009054906101000a900473ffffffffffffffffffffffffffffffffffffffff169080600101805461070b9061151e565b80601f01602080910402602001604051908101604052809291908181526020018280546107379061151e565b80156107845780601f1061075957610100808354040283529160200191610784565b820191906000526020600020905b81548152906001019060200180831161076757829003601f168201915b5050505050905082565b610796610d4e565b600160008373ffffffffffffffffffffffffffffffffffffffff1673ffffffffffffffffffffffffffffffffffffffff1681526020019081526020016000206040518060400160405290816000820160009054906101000a900473ffffffffffffffffffffffffffffffffffffffff1673ffffffffffffffffffffffffffffffffffffffff1673ffffffffffffffffffffffffffffffffffffffff1681526020016001820180546108469061151e565b80601f01602080910402602001604051908101604052809291908181526020018280546108729061151e565b80156108bf5780601f10610894576101008083540402835291602001916108bf565b820191906000526020600020905b8154815290600101906020018083116108a257829003601f168201915b5050505050815250509050919050565b60008060008381526020019081526020016000206000015414610927576040517f08c379a000000000000000000000000000000000000000000000000000000000815260040161091e906119c9565b60405180910390fd5b6040518060800160405280828152602001600067ffffffffffffffff81111561095357610952610ee5565b5b60405190808252806020026020018201604052801561098657816020015b60608152602001906001900390816109715790505b508152602001600073ffffffffffffffffffffffffffffffffffffffff168152602001600015158152506000808381526020019081526020016000206000820151816000015560208201518160010190805190602001906109e8929190610d7e565b5060408201518160020160006101000a81548173ffffffffffffffffffffffffffffffffffffffff021916908373ffffffffffffffffffffffffffffffffffffffff16021790555060608201518160020160146101000a81548160ff02191690831515021790555090505060026000815480929190610a6690611a18565b919050555050565b60006020528060005260406000206000915090508060000154908060020160009054906101000a900473ffffffffffffffffffffffffffffffffffffffff16908060020160149054906101000a900460ff16905083565b6000600160003373ffffffffffffffffffffffffffffffffffffffff1673ffffffffffffffffffffffffffffffffffffffff1681526020019081526020016000206001018054610b149061151e565b905011610b56576040517f08c379a0000000000000000000000000000000000000000000000000000000008152600401610b4d90611885565b60405180910390fd5b600080600084815260200190815260200160002090506000816000015403610bb3576040517f08c379a0000000000000000000000000000000000000000000000000000000008152600401610baa906118f1565b60405180910390fd5b8060020160149054906101000a900460ff1615610c05576040517f08c379a0000000000000000000000000000000000000000000000000000000008152600401610bfc90611aac565b60405180910390fd5b60018160020160146101000a81548160ff0219169083151502179055508060010182908060018154018082558091505060019003906000526020600020016000909190919091509081610c589190611767565b50338160020160006101000a81548173ffffffffffffffffffffffffffffffffffffffff021916908373ffffffffffffffffffffffffffffffffffffffff16021790555060036000815480929190610caf90611a18565b91905055503373ffffffffffffffffffffffffffffffffffffffff16837f572859572936a8520d7152c53bf23244a724daabac6c3f9af312b7ef02bb7fd184604051610cfb9190611acc565b60405180910390a3505050565b60025481565b60405180608001604052806000815260200160608152602001600073ffffffffffffffffffffffffffffffffffffffff1681526020016000151581525090565b6040518060400160405280600073ffffffffffffffffffffffffffffffffffffffff168152602001606081525090565b828054828255906000526020600020908101928215610dc6579160200282015b82811115610dc5578251829081610db59190611767565b5091602001919060010190610d9e565b5b509050610dd39190610dd7565b5090565b5b80821115610df75760008181610dee9190610dfb565b50600101610dd8565b5090565b508054610e079061151e565b6000825580601f10610e195750610e38565b601f016020900490600052602060002090810190610e379190610e3b565b5b50565b5b80821115610e54576000816000905550600101610e3c565b5090565b6000604051905090565b600080fd5b600080fd5b600073ffffffffffffffffffffffffffffffffffffffff82169050919050565b6000610e9782610e6c565b9050919050565b610ea781610e8c565b8114610eb257600080fd5b50565b600081359050610ec481610e9e565b92915050565b600080fd5b600080fd5b6000601f19601f8301169050919050565b7f4e487b7100000000000000000000000000000000000000000000000000000000600052604160045260246000fd5b610f1d82610ed4565b810181811067ffffffffffffffff82111715610f3c57610f3b610ee5565b5b80604052505050565b6000610f4f610e58565b9050610f5b8282610f14565b919050565b600067ffffffffffffffff821115610f7b57610f7a610ee5565b5b610f8482610ed4565b9050602081019050919050565b82818337600083830152505050565b6000610fb3610fae84610f60565b610f45565b905082815260208101848484011115610fcf57610fce610ecf565b5b610fda848285610f91565b509392505050565b600082601f830112610ff757610ff6610eca565b5b8135611007848260208601610fa0565b91505092915050565b6000806040838503121561102757611026610e62565b5b600061103585828601610eb5565b925050602083013567ffffffffffffffff81111561105657611055610e67565b5b61106285828601610fe2565b9150509250929050565b6000819050919050565b61107f8161106c565b811461108a57600080fd5b50565b60008135905061109c81611076565b92915050565b600080604083850312156110b9576110b8610e62565b5b60006110c78582860161108d565b92505060206110d885828601610eb5565b9150509250929050565b6110eb8161106c565b82525050565b600060208201905061110660008301846110e2565b92915050565b60006020828403121561112257611121610e62565b5b60006111308482850161108d565b91505092915050565b6111428161106c565b82525050565b600081519050919050565b600082825260208201905092915050565b6000819050602082019050919050565b600081519050919050565b600082825260208201905092915050565b60005b838110156111ae578082015181840152602081019050611193565b60008484015250505050565b60006111c582611174565b6111cf818561117f565b93506111df818560208601611190565b6111e881610ed4565b840191505092915050565b60006111ff83836111ba565b905092915050565b6000602082019050919050565b600061121f82611148565b6112298185611153565b93508360208202850161123b85611164565b8060005b85811015611277578484038952815161125885826111f3565b945061126383611207565b925060208a0199505060018101905061123f565b50829750879550505050505092915050565b61129281610e8c565b82525050565b60008115159050919050565b6112ad81611298565b82525050565b60006080830160008301516112cb6000860182611139565b50602083015184820360208601526112e38282611214565b91505060408301516112f86040860182611289565b50606083015161130b60608601826112a4565b508091505092915050565b6000602082019050818103600083015261133081846112b3565b905092915050565b60006020828403121561134e5761134d610e62565b5b600061135c84828501610eb5565b91505092915050565b61136e81610e8c565b82525050565b600082825260208201905092915050565b600061139082611174565b61139a8185611374565b93506113aa818560208601611190565b6113b381610ed4565b840191505092915050565b60006040820190506113d36000830185611365565b81810360208301526113e58184611385565b90509392505050565b60006040830160008301516114066000860182611289565b506020830151848203602086015261141e82826111ba565b9150508091505092915050565b6000602082019050818103600083015261144581846113ee565b905092915050565b61145681611298565b82525050565b600060608201905061147160008301866110e2565b61147e6020830185611365565b61148b604083018461144d565b949350505050565b600080604083850312156114aa576114a9610e62565b5b60006114b88582860161108d565b925050602083013567ffffffffffffffff8111156114d9576114d8610e67565b5b6114e585828601610fe2565b9150509250929050565b7f4e487b7100000000000000000000000000000000000000000000000000000000600052602260045260246000fd5b6000600282049050600182168061153657607f821691505b602082108103611549576115486114ef565b5b50919050565b7f417574686f7269747920616c7265616479207265676973746572656400000000600082015250565b6000611585601c83611374565b91506115908261154f565b602082019050919050565b600060208201905081810360008301526115b481611578565b9050919050565b60008190508160005260206000209050919050565b60006020601f8301049050919050565b600082821b905092915050565b60006008830261161d7fffffffffffffffffffffffffffffffffffffffffffffffffffffffffffffffff826115e0565b61162786836115e0565b95508019841693508086168417925050509392505050565b6000819050919050565b600061166461165f61165a8461106c565b61163f565b61106c565b9050919050565b6000819050919050565b61167e83611649565b61169261168a8261166b565b8484546115ed565b825550505050565b600090565b6116a761169a565b6116b2818484611675565b505050565b5b818110156116d6576116cb60008261169f565b6001810190506116b8565b5050565b601f82111561171b576116ec816115bb565b6116f5846115d0565b81016020851015611704578190505b611718611710856115d0565b8301826116b7565b50505b505050565b600082821c905092915050565b600061173e60001984600802611720565b1980831691505092915050565b6000611757838361172d565b9150826002028217905092915050565b61177082611174565b67ffffffffffffffff81111561178957611788610ee5565b5b611793825461151e565b61179e8282856116da565b600060209050601f8311600181146117d157600084156117bf578287015190505b6117c9858261174b565b865550611831565b601f1984166117df866115bb565b60005b82811015611807578489015182556001820191506020850194506020810190506117e2565b868310156118245784890151611820601f89168261172d565b8355505b6001600288020188555050505b505050505050565b7f4e6f7420616e20617574686f72697a656420617574686f726974790000000000600082015250565b600061186f601b83611374565b915061187a82611839565b602082019050919050565b6000602082019050818103600083015261189e81611862565b9050919050565b7f5061636b616765206e6f74207265676973746572656400000000000000000000600082015250565b60006118db601683611374565b91506118e6826118a5565b602082019050919050565b6000602082019050818103600083015261190a816118ce565b9050919050565b7f5061636b616765206e6f74207363616e6e656420796574000000000000000000600082015250565b6000611947601783611374565b915061195282611911565b602082019050919050565b600060208201905081810360008301526119768161193a565b9050919050565b7f5061636b61676520616c72656164792072656769737465726564000000000000600082015250565b60006119b3601a83611374565b91506119be8261197d565b602082019050919050565b600060208201905081810360008301526119e2816119a6565b9050919050565b7f4e487b7100000000000000000000000000000000000000000000000000000000600052601160045260246000fd5b6000611a238261106c565b91507fffffffffffffffffffffffffffffffffffffffffffffffffffffffffffffffff8203611a5557611a546119e9565b5b600182019050919050565b7f5061636b61676520616c7265616479207363616e6e6564000000000000000000600082015250565b6000611a96601783611374565b9150611aa182611a60565b602082019050919050565b60006020820190508181036000830152611ac581611a89565b9050919050565b60006020820190508181036000830152611ae68184611385565b90509291505056fea2646970667358221220a49c41db6183e6e030daabf14f955035594fef9fff94a40b4a27b0d2c0b12e3164736f6c63430008110033",
  "linkReferences": {},
  "deployedLinkReferences": {}
}